:100000000C9434000C9451000C9451000C94510049
:100010000C9451000C9451000C9451000C9451001C
:100020000C9451000C9451000C9451000C9451000C
:100030000C9451000C9451000C9451000C945100FC
:100040000C9451000C9451000C9451000C945100EC
:100050000C9451000C9451000C9451000C945100DC
:100060000C9451000C94510011241FBECFEFD8E026
:10007000DEBFCDBF11E0A0E0B1E0EEE4F2E002C0EF
:1000800005900D92A031B107D9F721E0A0E1B1E0D0
:1000900001C01D92A631B207E1F70E940C010C9439
:1000A00025010C940000E0ECF0E0908195FFFDCF7D
:1000B0008093C60080E090E00895E0ECF0E080815D
:1000C0008823ECF78091C60090E008951092C0005C
:1000D00088E18093C10086E08093C20088E080932D
:1000E000C4001092C50081E091E0909313018093C9
:1000F00012019093110180931001089584B18862D8
:1001000084B9249885B1886285B92C98229A2A9A54
:1001100082E58CBD08958EBD0DB407FEFDCF80E055
:10012000089580E00E948B0080E00E948B0080E0B8
:100130000E948B0080E00E948B0008958FEF0E9448
:100140008B008FEF0E948B008FEF0E948B008FEF50
:100150000E948B0008951F93CF93DF93C82FD62F53
:10016000142F809100010E948B00812F0E948B0030
:100170008D2F0E948B008C2F0E948B00DF91CF91DE
:100180001F910895EF92FF920F931F93CF93DF93E8
:1001900000D000D0CDB7DEB799838A837B836C8390
:1001A0008E010F5F1F4F7E0185E0E80EF11CF80104
:1001B00081918F010E948B000E151F05C1F70F90D2
:1001C0000F900F900F90DF91CF911F910F91FF90A3
:1001D000EF900895CF92DF92EF92FF920F93CF931B
:1001E000DF936B017C01C42FD22F2A980E949100CB
:1001F000402F6D2F8C2F0E94AB00C701B6010E94CB
:10020000C2000E949E002A9ADF91CF910F91FF9029
:10021000EF90DF90CF9008950E947E000E946600CC
:10022000C0E0D0E0F12C10E0BE01882777FD80957A
:10023000982F04E624E644E60E94EA002196C0399D
:0E024000D10594F3CF2DD12FEFCFF894FFCF3F
:10024E00FF000000030000000053005D00000000EE
:00000001FF
