S01F00004164647265737361626C655F4C65645F4578616D706C652E737265630C
S11300000C9434000C9451000C9451000C94510045
S11300100C9451000C9451000C9451000C94510018
S11300200C9451000C9451000C9451000C94510008
S11300300C9451000C9451000C9451000C945100F8
S11300400C9451000C9451000C9451000C945100E8
S11300500C9451000C9451000C9451000C945100D8
S11300600C9451000C94510011241FBECFEFD8E022
S1130070DEBFCDBF11E0A0E0B1E0E4E2F1E002C0F8
S113008005900D92AE30B107D9F721E0AEE0B1E0B2
S113009001C01D92A431B207E1F70E948B000C94B9
S11300A090000C940000E0ECF0E0908195FFFDCF0F
S11300B08093C60080E090E00895E0ECF0E0808159
S11300C08823ECF78091C60090E008951092C00058
S11300D088E18093C10086E08093C20088E0809329
S11300E0C4001092C50080E091E0909311018093C8
S11300F0100190930F0180930E01089584B18862DA
S113010084B9249885B1886285B92C98229A2A9A50
S113011082E58CBD08950E947E000E946600FFCF98
S1070120F894FFCF7D
S1110124000000030000000053005D00000016
S9030000FC
